:020000040000fa
:080000000002040000000000f2
:020000040000fa
:100008003e0300003e0300003e0300003e030000e4
:100018003e0300003e0300003e0300003e030000d4
:100028003e0300003e0300003e0300003e030000c4
:100038003e0300003e0300003e03000036050100b9
:100048000e0501003e0300003e03000072d20000ce
:100058003e0300003e0300003e0300003e03000094
:100068003e0300003e0300003e0300003e03000084
:10007800889900003e0300003e0300003e03000094
:100088003e0300003e0300003e0300003e03000064
:100098003e0300003e030000dcd200003e030000e7
:1000a8003e0300003e0300003e0300003e03000044
:1000b8003e0300003e0300003e0300003e03000034
:1000c8003e0300003e0300003e0300003e03000024
:1000d8003e0300003e0300003e0300003e03000014
:1000e8003e0300003e0300003e0300003e03000004
:1000f8003e0300003e0300003e0300003e030000f4
:100108003e0300003e0300003e0300003e030000e3
:100118003e0300003e0300003e0300003e030000d3
:100128003e03000048d200003e0300003e030000ea
:100138003e0300003e0300003e0300003e030000b3
:100148003e0300003e0300003e0300003e030000a3
:100158003e0300003e0300003e0300003e03000093
:100168003e03000066d30000a8d300003e03000051
:100178003e0300003e030000d20000003e030000e2
:1001880046d4000058d500003e0300003e0300009e
:100198003e0300003e0300003e0300003e03000053
:1001a8003e0300003e0300003e0300003e03000043
:1001b8003e0300003e0300003e0300003e03000033
:1001c8003e0300003e0300003e0300003e03000023
:1001d8003e0300003e0300003e0300003e03000013
:1001e8003e0300003e0300003e0300003e03000003
:0801f8003e0300003e0300007d
:020000040000fa
:100208003e0300003e0300003e0300003e030000e2
:100218003e0300003e0300003e0300003e030000d2
:100228003e0300003e0300003e0300003e030000c2
:100238003e0300003e0300003e03000036050100b7
:100248000e0501003e0300003e03000072d20000cc
:100258003e0300003e0300003e0300003e03000092
:100268003e0300003e0300003e0300003e03000082
:10027800889900003e0300003e0300003e03000092
:100288003e0300003e0300003e0300003e03000062
:100298003e0300003e030000dcd200003e030000e5
:1002a8003e0300003e0300003e0300003e03000042
:1002b8003e0300003e0300003e0300003e03000032
:1002c8003e0300003e0300003e0300003e03000022
:1002d8003e0300003e0300003e0300003e03000012
:1002e8003e0300003e0300003e0300003e03000002
:1002f8003e0300003e0300003e0300003e030000f2
:100308003e0300003e0300003e0300003e030000e1
:100318003e0300003e0300003e0300003e030000d1
:100328003e03000048d200003e0300003e030000e8
:100338003e0300003e0300003e0300003e030000b1
:100348003e0300003e0300003e0300003e030000a1
:100358003e0300003e0300003e0300003e03000091
:100368003e03000066d30000a8d300003e0300004f
:100378003e0300003e030000d20000003e030000e0
:1003880046d4000058d500003e0300003e0300009c
:100398003e0300003e0300003e0300003e03000051
:1003a8003e0300003e0300003e0300003e03000041
:1003b8003e0300003e0300003e0300003e03000031
:1003c8003e0300003e0300003e0300003e03000021
:1003d8003e0300003e0300003e0300003e03000011
:1003e8003e0300003e0300003e0300003e03000001
:0803f8003e0300003e0300007b
:020000040000fa
:100400004fdb24000eff27000e01880000000000d3
:10041000000020000000e000020032000001200087
:10042000200288000c000700e0832a000100200061
:100430000f000700000020000000e0000200320072
:10044000000002000000000008e9020000000000b7
:100450000040da000000fe00200020000000e00064
:100460000200320010002000900188000000060009
:10047000a1028800800078000000eb001a0037001d
:10048000e280400054a0b4009101ba00e280400034
:1004900054a0b4009102ba00e280400054a0b4001d
:1004a0000002eb00472bde00f507b200a601880032
:1004b000602ce10008003a000049eb000201e8006e
:1004c000020039003420ec0002f0a0008301e900b2
:1004d000f9ff3e00040037006128e100010032000e
:1004e0000082eb00040007001101ba000200e000e6
:1004f000e3ff3a000000060004d0a300e20f490029
:100500001c003900810278003549ba000201e80078
:10051000020039003420ec0002f0a0008301e90061
:100520000f0032002549ba000201e800020039003c
:100530003420ec0002f0a0008301e9000800320042
:100540000400e0000600320015c9ba000201e8000c
:10055000020039003420ec0002f0a0008301e90021
:100560008180e80054a0b4000300e000e2ff3a00fc
:10057000000006009102ba00055978008301e900e5
:10058000f7ff3200c82ade00055978008301e90030
:10059000f3ff32000400e000f1ff320011d9ba008d
:1005a000eeff370000000400000000005c42040081
:1005b0000000000014480400000000005243040042
:1005c000000000007251040000000000984a04007e
:1005d000000000003e49040000000000e64b04005b
:1005e000000000000a4d0400000000007e4f0400df
:1005f0000000000018560400000000008a570400a4
:10060000000000002c58040000000000c642040056
:100610000000000094580400000000005c47040043
:10062000000000009044040000000000a643040005
:10063000000000005c4b040000000000924b04002e
:1006400000000000b24b040000000000e658040067
:1006500000000000545a04000000000040e70400bd
:100660000000000048e704000000000050e704001c
:100670000000000000020400000000000040da005a
:100680000000fe000a00fa00e20f500022003e00c7
:10069000746a8200e10f52000600320087232000b6
:1006a000462320002423200005232000e08f530050
:1006b00004003a0087222000462220002422200045
:1006c00005222000000028001500600003003a0009
:1006d000800b780007002800958a730005402000f1
:1006e0009482620001003a0014a0a0008202780007
:1006f00006003700940378000710b200fdff3200b7
:10070000b103fb00070b78008502e900e08f52007f
:10071000f8ff3a000800370034002000c0bf9f00f7
:10072000e2bf9f00b4bf9f00d1bf9f006a80570007
:100730003c0b07006fb99700020078000080fa00b8
:10074000000006000000fa00141180000442780046
:1007500061426200044078000080fa000000060058
:100760000000fa00941180000442780061426200a7
:10077000044078000080fa00000006000000fa0043
:1007800094128000044278006142620004407800c4
:100790000080fa00000006000000fa0094158000b6
:1007a0000442780061426200044078000080fa0050
:1007b000000006000000fa000411800066026200da
:1007c000e60f520002003a003411800003003700a7
:1007d00035118000f40f20000482620004007800cc
:1007e0000080fa00000006000000fa00841180007a
:1007f00066026200e60f520002003a00b411800067
:1008000003003700b5118000f40f2000048262005d
:10081000040078000080fa00000006000000fa00e2
:100820008412800066026200e60f520002003a0065
:10083000b412800003003700b5128000f40f2000ce
:1008400004826200040078000080fa0000000600c4
:100850000000fa008415800066026200e60f520074
:1008600002003a00b415800003003700b51580007f
:10087000f40f200004826200040078000080fa0077
:10088000000006008f1fd100880207008f87e90053
:100890000000e00000000600809feb0083020700dc
:1008a0008f87e9000000e000000006002800fa0041
:1008b000889fbe008a9fbe008c9fbe0003866b008f
:1008c000800007006400e100440032006408e10099
:1008d0004a0032006100e100460032006108e10098
:1008e00049003200ec0647006000b8003d02be003f
:1008f0003d03be00f48657006011b8003d04be0001
:100900003d05be007d0320000b0037000000a00065
:100910008d06e900130032000402420085824a007d
:1009200006034b0087834b00000040008180480095
:1009300002014900838149000802520089825a005d
:100940000a035b008b835b00f0ff3b000802420060
:1009500089824a000a034b008b834b008d06e90015
:10096000edff3a008482720086827200f707b200bf
:100970008782720001003200150020001e049000e2
:100980003e0b900006035400e63fb0000368a3004e
:10099000070032000000a7000500a0008301d1007d
:1009a0000281d3008180d3000080d3000603e800d9
:1009b0008301d1000281d3008180d3000080d30065
:1009c0000002eb000482d2001200070003f0a10035
:1009d0000cf0a70003f0a0004e00370064024700af
:1009e0006408e100480032003400be003401be005b
:1009f000f6ff37006108e100430032006011b800e3
:100a00006000b800f1ff370003ff2700020020005c
:100a1000fbff370018002000570020000804530097
:100a20000d003d000600200097fc2f000740e1006c
:100a30001e00340084827200610260008301d100d4
:100a40000281d3008180d3000080d3000804e80035
:100a5000f8ff3a00470020006104600005047400bc
:100a6000040464000d00320061004000e080480092
:100a700060014900e081490003b8a5000700320089
:100a80000603e8006538e10004003a008301d10064
:100a90000281d3008180d3000080d300f87f200042
:100aa0000830e10003003500080378006000b8005a
:100ab0006011b8004433dd00f300b200830173001d
:100ac00000000600680447000294be000094be00c7
:100ad000fc0447008694be008494be0009007800a0
:100ae0003b020700080078003902070099007800ef
:100af000814f70000b003b000800be00140207008d
:100b00004f00b10003003700f3ff2700f2ff2f0072
:100b10006110b9004f06be004f05be004f04be0075
:100b20000080fa00000006001400fa00889fbe0052
:100b30008a9fbe008c9fbe000004be000205be005e
:100b4000680047000a90be000890be00200207001f
:100b50000070a7000bf0a100304320009e0290001f
:100b600080825200b0fe2f000028e10011003d00fd
:100b7000b0fc2f000028e100150034001e09900091
:100b80008e0890007e0090000501b0000201d100a7
:100b90008180d3000080d3008502e800fbff3a008b
:100ba0000b00e000dbff3b0060001000e08018005d
:100bb000d8ff3700f0ff2f00f1ff27000b00e00007
:100bc000d4ff3b000100280000002000d1ff3700c7
:100bd0006000b800cfff37004f89de008201780047
:100be000220237006011b800300237002800fa00f6
:100bf000889fbe008a9fbe008c9fbe0003866b004c
:100c0000b0ff07000028a30064003a000128a300f9
:100c100067003a000008a30062003a000108a30040
:100c200065003a001e009000be089000810640005a
:100c3000ed3fb100f4805700ee019000111ab800aa
:100c40008e099000311bb8009e099000311cb8003d
:100c5000511db800f485570046000700fe019000c2
:100c60003a0007008b85e8003e0007008e099000df
:100c700040000700ee019000340007008b85e8007b
:100c8000380007008e099000400007009e09900080
:100c90001b18b800890440000a854800fe01900036
:100ca000340007008b85e80038000700ee01900053
:100cb000300007008e0990001b18b800890440001e
:100cc0000a8548000a98a30008003a00040242007e
:100cd00085824a0006034b0087834b0008044c00c2
:100ce00089844c000a054d008d06e900848272005b
:100cf000850273004c3add0085027200010032006b
:100d000015002000443ade001400b2004538de0031
:100d1000cb45dd000b007000c540de00cb4ddd0093
:100d20008b8070004549de00cb55dd000b01710062
:100d3000c551de000d03780036ff070003f0a10067
:100d40000cf0a70003f0a00072ff37001b18b800da
:100d50008502400006834800e0834b0060044c009d
:100d6000070037001b18b8000603400087834800bf
:100d7000faff37001b18b8008703400008844800ba
:100d8000e0844c0060054d00000006001b18b80010
:100d90000804400089844800faff37000108a300d6
:100da00059ff3a005800be005801be00e3ff37006b
:100db0000008a30054ff3a0009047800f9ff370047
:100dc0001400fa00889fbe008a9fbe008c9fbe0060
:100dd0000004be000205be00680047000a90be0085
:100de0000890be007a0107000078a3003d003a0099
:100df0006100e1003c0032000bf8a3003d003a0026
:100e00006400e100380032006c0347001e009000cf
:100e1000f03fb1003602be001603be000008a3007a
:100e2000040032000402420085824a0006034b009f
:100e300087834b00100798008e1f78006000b80071
:100e40006011b8005c0020006d0120006e002000e1
:100e5000020037008d86e900fc00200004024200f9
:100e600085824a0006034b0087834b000004400044
:100e70008184480002054900838549006060e100e3
:100e80001d60ad000804520089845a000a055b0009
:100e90008b855b00030039001e60ad000802be00b8
:100ea0000a03be000c06e900ecff3b000e87e900d8
:100eb000e8ff3b004f077800610260008402780081
:100ec0008301d1000281d3008180d3000080d30050
:100ed0001e03900041b3de00f63fb000cdfe0700d8
:100ee0000cff37000b30a0000800be000a01be0056
:100ef00008ff3700120220000240880002ff37007e
:100f00006022b800060220000000d0008180d200dc
:100f10000482d2008582d2000000a00002025200aa
:100f200083825a00030031000202420083824a0099
:100f30000000a1000603e900f3ff3a0000000600ec
:100f4000889fbe008a9fbe003004be002005be0000
:100f50000404440085844c0006054d0087854d003f
:100f60000898be000a90be000440e10005c8e100f8
:100f700006d0e10007d8e10002003100680040001f
:100f80001008e8004f05be004f04be000000060038
:100f90001000fa00889fbe008a9fbe00110020004a
:100fa0000605be000404be003002be002003be00e1
:100fb000c4b79f00d5b79f00e6b79f00f7b79f0063
:100fc0000802520089825a000a035b008b835b008f
:100fd00084bf9f0095bf9f00a6bf9f00b7bf9f0023
:100fe0000498be000698be004fb29700dfb297008b
:100ff0006fb39700ffb397000820e10009a8e10054
:101000000ab0e1000bb8e100010039008000eb00fc
:101010004f05be00108810004f04be000080fa008b
:10102000000006001400fa00889fbe008a9fbe00e0
:101030008c9fbe000006eb003e000700ccb79f006f
:10104000bcb79f00acb79f009cb79f008cb79f00b8
:101050000605be000404be000d0420004fb3970037
:10106000bfb29700860343002fb29700e00f5300f2
:1010700004003d003d0007000f004000b0ff0700e6
:1010800003003700390007000f004000c0ff0700d1
:10109000cfb2970095bf9f00e08f52000900350046
:1010a0002b00070014002000050020006033b8006a
:1010b000000072008180720002017300838173005e
:1010c0001c0007000c06e8008d0f5600e3ff3a00f5
:1010d0001fba9700e00f520005003d000802be0055
:1010e0000a03be0000fe2f000f00400094ff07001f
:1010f0004faa9700e00f520008003a000fb4970083
:101100009fb497002fb59700bfb59700d8b79f0041
:10111000e9b79f00fab79f008bbf9f000c00070044
:101120004f06be004f05be004f04be000080fa000f
:1011300000000600010007000000060090b79f00b5
:10114000a1b79f00b2b79f00c3b79f000000060081
:1011500001000700000006001fb09700afb0970025
:101160003fb19700cfb19700000006004f2bde0083
:10117000f9ff070086837300858242004f23de005b
:10118000a7b79f00868272000402420095b79f00b5
:10119000ffaa97004f2bde008582420006027200f4
:1011a00084b79f006faa97004f23de00040242001d
:1011b00086827200f5af9f004f18de0000027200b9
:1011c000e5ff0700e4af9f00000040008180480079
:1011d00002014900838149000802be000a03be00e3
:1011e000d6ff070000fe2f0000000600881f7800d1
:1011f00018002000881f78008aff07008f87e90009
:101200004f04780000000600889fbe008a9fbe0041
:101210008c1f78000006eb00e00f5000e08f5800b4
:10122000e00f5900e08f590007003d006044b8000e
:101230006055b8001c0020000000540081805c0054
:1012400002015d0083815d00e00f5200e08f5a00d3
:10125000e00f5b00e08f5b0007003d006044b800da
:101260006055b8000c00a2000402540085825c00a6
:1012700006035d0087835d00b7000700e00f56009e
:10128000060032006022b8006033b800000052004f
:1012900081805a0002015b0083815b004f06780069
:1012a0004f05be004f04be0000000600889fbe0030
:1012b0008a9fbe008c9fbe000404be000605be00cf
:1012c000809fbe00829fbe002f00070004067800aa
:1012d0000800be000a01be002b000700840678004b
:1012e0004f03be004f02be008d4f76007fb09700c7
:1012f00013003300f0ff2f008b8f6b0006003b00c4
:101300000d0666000c00a7000a00370007f0a600d3
:10131000100020000a003700880f5200898f5a0001
:101320008a0f5b008b8f5b000300390010002000e8
:1013300001003e000000200007f0a7000000ea00c6
:101340004f06be004f05be004f04be000000060061
:10135000e48240001078a3000700320064024000dd
:101360001178a3003400be001401be000400320056
:101370000330a700000006003500be001501be00c6
:101380000330a0000000060005ff27000582610071
:10139000070032000428e1000100320024000500ab
:1013a0000600070001003a0044000500040805009b
:1013b00002000700f9ff3a00140005006f82610087
:1013c0008102700085027100850272000000060033
:1013d000800078005002be005003be004439de0099
:1013e000f700b200f37f2000030161000900320022
:1013f0000218e10016003a008501720083017300b3
:10140000838173000008200015003a00400020008e
:10141000130037008501720083017300838173001c
:1014200005003a0004a8be0006a8be001000200077
:101430000b0037000201e9000402420085824a00e5
:1014400006034b0087834b000748a300f9ff3200d7
:101450000740a00004a8be0006a8be00200020008f
:10146000800098009200980000000600881f780015
:10147000030478000300e00007003d006000100056
:10148000e080180060011900e081190002003b00b3
:1014900001f02d00030037000400070008f0a7004a
:1014a00003f0a0004f04780000000600889fbe00f3
:1014b0000082700004027100048271002400320076
:1014c00036432000c50020008383cf000a00390086
:1014d0000541b1008283cf00070039000541b1000a
:1014e0008183cf00040039000541b1008083cf0023
:1014f000010039000541b10085c353006022b800e6
:10150000120032000a003b00848272006102600017
:101510008301d1000281d3008180d3000080d300f9
:101520000603e8008743e800f7ff3a0007003700aa
:101530000000400081804800020149008381490089
:101540000603e9008743e900f9ff3a0031fd07008f
:101550004f04be0000000600889fbe008a9fbe00a8
:101560008c9fbe000404b8000506b800890446003c
:1015700060854e000606b8000a054600e0854e006c
:101580000706b8008b054600040eb8008904460023
:101590000a854e00e0854d00050eb8000a0546009c
:1015a0008b854e00060eb8008b0546000416b80069
:1015b0000a0546008b854e000516b8008b054600cf
:1015c000041eb8008b0546000800be000a01be00dc
:1015d0004f06be004f05be004f04be0000000600cf
:1015e00006c2b3000002780004007800b042780020
:1015f00086cf5200fbff3200e9cf5200f9ff3200e4
:10160000d6c2b30086cf520003003a000002780031
:1016100016c0b300050037000043eb00b7c2b300ab
:1016200087cf520001003a00000278000000eb0072
:10163000020037006a00b90000804200b402fb00db
:101640000503b100e98f5200faff3600e04f530066
:10165000010032000000ea000000060004c2b300ee
:10166000889fbe008a9fbe003044780080047800c6
:10167000844f5400fcff3200e94f5400faff32005f
:10168000d4c2b300844f540003003a0039447800b8
:101690001ac0b300050037000045eb00b4c2b30028
:1016a000844f540001003a00394478006000b800cb
:1016b0000bcdb30009003700a2002000030020007a
:1016c0007b0707000b424400394478000482fb008a
:1016d0000500200004004000858048000882fb00cf
:1016e0000403b100e90f5200f3ff3600e04f55004c
:1016f0000200320060001000e08018004f05be00bc
:101700004f04be000000060000027800d016200042
:10171000e30262000e003a004506200011000900b5
:101720000582d800e0162000e08f500008003a0043
:10173000c412b00005192000110009000582d8006c
:10174000d0162000e08f500001003a000000e800b1
:1017500000000600c203200003002000889fbe0096
:101760001004be000800be003f070700c2032000af
:101770000300200080678a000800be002b070700d6
:10178000c2032000030020000004be00360707004b
:10179000c20320000300200090678a000800be00fa
:1017a0002207070082012000030020000004be0081
:1017b0002d0707008201200003002000a0678a0097
:1017c0000800be0019070700740020000004be00d6
:1017d000e402400069042000110009008402d800de
:1017e00001027800e4678a00020037000004540018
:1017f0008904e80009007800c3ff0700800f540047
:10180000faff3d00d9678a0062406000f8678a00ed
:101810000002eb0026d12400040037000080fb000a
:10182000050454000402e8000000d100e6427a00fa
:10183000854270008582fb00850f5400f7ff3d0054
:10184000c4678a0064cf2400080ae80066005200da
:101850004f04be0000000600456a82000400fa0042
:1018600044fc2f0004aab90030034200a0834a00c0
:1018700064805700e6bf9f00f7bf9f00b5ff0700d9
:101880000080fa0000000600041920000003780020
:10189000110009000483d80014002000e08f5000dc
:1018a0000b003200e30263000002eb00848f520061
:1018b00007003a0044062000110009000483d80004
:1018c00001f0a7008100ea000102ea004f22de00d9
:1018d000040078000000060014bf20000480b90056
:1018e00014442f00000042004406200011000900ab
:1018f0000480d8000000060004192000881f78002a
:10190000d216200000047800110009000484d800d9
:101910004243de00000278000241b80005002000ca
:1019200006034200e0834a0044062000060341000b
:1019300087834900110009000484d8004f0478000f
:101940008002780005005300e0805b000000060084
:10195000889fbe00810478008a9fbe000004780042
:10196000020578000900e800dbff07000a054000d7
:101970000b002000e18f54000a00360008007800b8
:10198000c1ff07002400200005002000e00f5000e8
:10199000020032001400200005002000040555005c
:1019a00085855d000800e900d3ff070000004500c1
:1019b00081804d004f05be004f04be0000000600b0
:1019c000889fbe00000478008a9fbe00d804900063
:1019d0008c9fbe00a5fb2f00898242000080eb0097
:1019e0008080eb00e4102000848f520032003e0023
:1019f00038019000c0762000c800900000804400ac
:101a0000d3ff0700120020000006be008000eb009c
:101a1000207b2000ceff0700720020000300200082
:101a20000005560081855e000c06e9000a00be0034
:101a30008d060700720020000300200064004000b3
:101a4000e08048008806070060049800b076200017
:101a500000804400a8ff070082012000030020004e
:101a6000000656000a00be007c049800900607009d
:101a7000c20320000300200028029000cfa2de0055
:101a80000000420081804a00890607001802900089
:101a9000c203200003002000cfa2de0000004200ad
:101aa00081804a008206070018027800cfa2de007b
:101ab0000000420081804a004f06be004f05be0074
:101ac0004f04be0000000600e68747008e1f780026
:101ad00066875700d0bf9f00012f78000f003700a6
:101ae0005fbb9700efba9700164078001542780068
:101af00061015100e0815900844f50000400320020
:101b00000080fb000482fb00040050000700370047
:101b10000603e800d6bf9f00050fe800e00f510064
:101b2000e08f5900eeff3a000000eb004f0778000d
:101b30006f00b100000006000002eb008002780098
:101b40000500370061437a0061015100e0815900ce
:101b500086727a000402e800e00f5100e08f59001d
:101b6000f8ff3a0000000600808f5000110031009d
:101b700082824000808f52000e00360082034000b7
:101b80000002eb008502e9008703e9000403ea0094
:101b900061015100e0815900e6c07a000402e800ca
:101ba00001f37b00e00f5100e08f5900f7ff3a008e
:101bb00000000600e00f5100e08f59000a003200db
:101bc0000002eb008002780061437a00610151005d
:101bd000e081590086727a000402e800e00f5100ab
:101be000e08f5900f8ff3a00000006000002eb0009
:101bf000800278000400370081727a006101510090
:101c0000e08159000402e800e00f5100e08f590024
:101c1000f9ff3a00000006000000fa00889fbe00ad
:101c20008a9fbe008c9fbe00800478006fb397002f
:101c3000f48257005ac2b300e2d124002e003700cc
:101c40000603e8008a4f520028003a00b601fb0064
:101c50008582e90004fd2f00030242000d003a00d6
:101c6000614cb800950578008801780002003700c3
:101c700087f079000402e8006126b8008c00780043
:101c800008004600e1c37d00e0cf5300f8ff3a00b2
:101c900018003700950678008003eb0009067800ed
:101ca0000404d0000402e90062047c001100090071
:101cb0008806d8000404d0008106780062047c0005
:101cc000110009008806d800000478000843b0001d
:101cd00008f67b008703e800e00f5200f0ff3a00af
:101ce000038044000003b1000200370009007800bf
:101cf000045878008004780016427800e04f5200c3
:101d0000cfff3a00844c78004f06be004f05be005e
:101d10004f04be000080fa0000000600e88747007c
:101d200061015100e0815900889fbe0000047800e5
:101d30008a9fbe00810478008c9fbe000405780055
:101d40008e1f7800820544006ecd2400e8b79f0006
:101d50008e06e8000d06e800150137008904e8004a
:101d600054c2b30084cf52000a013a0039427800cd
:101d7000a6c5b300864f5200e800320028003c00a0
:101d80006d435300864f52008f00320012003c001a
:101d90006b435300864f52005900320007003c004d
:101da000a6ac2400854f52004c00320015c4b3008d
:101db000854f5200df003a004200370085c4b3006f
:101dc000854f52006e0032008542e800854f520078
:101dd000d8003a006d00370075c5b300854f52003a
:101de0008d00320007003c00e4c25200854f5200d3
:101df0007d00320085c2e800854f5200cd003a00d8
:101e00007b00370085c5b300854f5200a900320022
:101e10008542e800854f5200c6003a00b600370000
:101e2000a5c6b300854f5200600032000f003c0091
:101e3000e8c25200854f52002d00320004003c00e1
:101e40008542e900854f5200ba003a001900370078
:101e500035c6b300854f52002e0032008542e8009f
:101e6000854f5200b3003a004200370075c7b300f7
:101e7000854f52007800320007003c00eac2520051
:101e8000854f52004d003200e3c24200854f5200a0
:101e9000a8003a004e00370085c7b300854f5200b6
:101ea000710032008542e800854f5200a1003a00df
:101eb0008b0037006a02900045bd24000402d00068
:101ec000120037006a029000e5a224000402d0004c
:101ed0000e0037008404780066cd24006140b8000d
:101ee0000002eb000001780086017800a0003700b6
:101ef0004a029000c5a624000402d0000300370067
:101f00004a029000858b24000402d00065037a0009
:101f1000f2ff3700da0290001a009000c476200029
:101f2000aa009000849f42003a0290009a1f780015
:101f3000c5a62400801f7800811f7800841f7800c8
:101f40004a0290000402d00060cd2400e51f7a0010
:101f50006a02900045bd24000402d000e51f7a000b
:101f600034ad2400841f78002bff0700f087570052
:101f7000d9ff3700ba029000851f7800340037007f
:101f80002a039000861f780031003700aa009000d5
:101f9000c4002000110009008400d800e08f500028
:101fa00053003a0084007800510037007a02900014
:101fb000841fe800b4ae2400530037004a029000aa
:101fc000841fe800220037009a0390001f003700aa
:101fd0002a029000d6ac2400eb0f5200bfff340061
:101fe00006ad2400bdff37009a1f780018003700a7
:101ff0007a00900074002000ea02900011000900ad
:102000000400d800858f5000010034000000e80073
:10201000801f78000e0037007a03900074002000c3
:10202000ea029000110009000403d800e682420091
:102030000103780080037800110009008402d800b1
:10204000810f5300010034008703e800871f7800e8
:1020500084ae24002c003700ea009000e4ae240097
:10206000811f780028003700da029000c476200033
:10207000849f42003a029000c5a62400841f780085
:102080004a0290000402d00060cd2400e51f7a00cf
:102090006a02900045bd24000402d000e51f7a00ca
:1020a00014af2400841f7800dbfe0700ea87570086
:1020b00089ff37009a1f78009a0290002a03900047
:1020c000851f7800f4af2400861f780060cd2400bf
:1020d000841f7800d0fe0700e88757007eff370096
:1020e000da02900044062000110009008402d800a2
:1020f000811f7800d6ff3700c4762000da029000f6
:10210000849f420084b02400841f780060cd2400a6
:10211000c1fe0700e48757006fff37000a0a9000ee
:10212000c6ac2400e00f52006cff320096698200ba
:102130006aff370054c2b300044f780009027800e8
:10214000c4427800004eeb00854e7800e0cf52008c
:1021500060ff320060ff37008b0f540002003a002e
:10216000804deb000f003700857379000402e80012
:102170006123b800f6b79f0087bf9f00ffb39700a9
:1021800000044300e7c27900e0cf5200f2ff3a00ba
:10219000070037008b0f540004003a000800780055
:1021a0000048eb006000b80009003700055c7800cb
:1021b00099427800e0cf5200e8fe3a00080078002b
:1021c0006fb497000548780008005000cf80de000b
:1021d0004f0778004f06be004f05be004f04be00fb
:1021e0008f00b10000000600000278000000eb0044
:1021f0000401e80084027800030020006103b800b5
:102200000000e8008600410065437b00e04f53007a
:10221000faff3a000482ea0004804000cf80de002a
:10222000000006008002eb00889fbe00610bb80032
:102230008a1f7800060578000e0037006842780093
:10224000e04f5200060032008502e80061015100b3
:10225000e081590068447d00884f5200050032003b
:102260000480fb00914078008182fb000500500053
:1022700006003700612cb80086004400e00f5100d2
:10228000e08f5900edff3a000000eb004f057800a9
:102290004f04be0000000600889fbe000004be0080
:1022a0000b00370009007800cfff07000001be00d7
:1022b0000800be00dbff0700e00f50000a003200fc
:1022c0000800e8009900fb00bb0307000004780049
:1022d000e00f5400040032000042eb00984f12005f
:1022e000f0ff3a000004eb00080078004f04be0045
:1022f000000006000c00fa00889fbe00f4ff2700d3
:1023000000047800d4bf9f008004eb0088bf9f00ca
:1023100099bf9f00a8bf9f00240c20007881570020
:10232000b4bf9f00cfb09700708057000700070030
:102330000fba9700094a78000fba970008005200b8
:102340004f04be000080fa00000006008f03b000ba
:10235000889fbe008a9fbe008c9fbe0080067800ca
:102360008e1f78000007eb0092b79f0087033700ad
:102370000101e80054c2b300a2a79f00844f50009f
:1023800009003a00020578000002eb000b00200073
:10239000040678000a01780001c3b30000c2b3004c
:1023a000b7c2b3000f0037003d0290000404b20032
:1023b000040032001d027800004a7800840ee80014
:1023c000050037000000fb008d0078008403070043
:1023d000e10f40006c0332000e07e8006a0337008b
:1023e0000402e8006124b800d3c2b3008a024400aa
:1023f00062437c00834f53000900320005003c001b
:10240000804f530008003200874f53000c003a0001
:1024100007003700814f530009003a0006003700db
:102420000c30a000eeff37000c00a000ecff3700de
:102430000c10a000eaff37000c20a000e8ff3700d6
:1024400062026600010032000c00a1006802660012
:10245000010032000c20a1000602fb000403b100c1
:10246000e90f520016003e000003eb0085037800e0
:10247000060278000704e8000900200088007800c0
:102480006131b800020078006a22b90062c57b00a1
:10249000e0c278000a05fb008502fb000a03b100d8
:1024a00008014100040245000603e8000503b100ed
:1024b000e98f5200f2ff36008202780008003700f0
:1024c0000002eb00a7c2b300874f530004003a009c
:1024d0001fb397008502e8004602780096b79f0078
:1024e0008003eb00e6c2b300a7b79f00954f13002f
:1024f00010003a00050378000ce0a000a7c2b3006a
:10250000d6cf1300060032000501e8000003eb00ff
:10251000030020000005eb00820378000b00370069
:102520001fb497008602e800c804780098b79f009f
:10253000a9b79f000501e8008003eb00030020001d
:102540000e0037006a50b900008542006130b800c3
:102550000603e800e7427800000441008184490056
:102560008502fb000503b100e98f5200f5ff36003c
:10257000aab79f0088027800eeff37006138b800e4
:10258000cbc6b3006543780000054100aaa79f00b1
:102590008b4f5300250032000f003c0035c6b300be
:1025a000854f53009f00320004003c00e04f530071
:1025b000fa023200ebc252000f00370045c6b300ea
:1025c000854f530017003200e5c24200854f53008b
:1025d000b3003a001300370035c7b300854f5300ee
:1025e0002000320007003c00e4c25200854f530037
:1025f000150032008542e800854f5300a8003a00dc
:102600001400370055c7b300854f5300ab003200ac
:10261000e3c24200854f5300a1003a00c67f9f00ed
:102620000e003700c67f9f00a600370070006600ce
:102630000601200001003200060028000c0673008d
:102640008703e800cdff3700c67f9f000c60a00025
:102650009c003700c67f9f000c50a0000c70a000ab
:10266000980037001fb09700c67f9f00c002780017
:1026700090b79f00b5b79f00e08f520002003a006c
:1026800042c02400b2b79f003fb397008002eb0026
:10269000010037008502e800e6c37a00e0cf53006e
:1026a000fcff3a00c5b79f00afb19700e08f510023
:1026b00005003200cfb29700858f51000200310033
:1026c00003037800c6b79f00cfb297000004eb0069
:1026d000850f5200010036000504520068066600ae
:1026e0000ac2b3000f003200290037003d029000fb
:1026f0000404b200040032001d0278000a4a780087
:10270000840ee800050037008d00780000022000ec
:10271000b3020700e10f4000010032000e07e8009d
:102720000804e900e00f5400f0ff3a000084eb00d9
:1027300017003700bd0290000504b2000900320006
:10274000880278009d03780035437800864b780036
:1027500005047800870ee800e04f53000a003a00b5
:1027600011003700880278008d0078003500fb00ea
:1027700084bf9f0005047800990207000fba9700f4
:10278000e10f4000080032000e07e80006003700a5
:102790000c027800080678003fb49700cfb4970089
:1027a0005fb59700efb59700890278008504e900ce
:1027b000e08f5200dfff3a00b8b79f00c9b79f0013
:1027c000dab79f00ebb79f000c0478000ac2b30091
:1027d00004067800e00f56000f003a006a02370046
:1027e0003d0290000404b200040032001d02780093
:1027f0000a4a7800840ee800050037008d00780052
:102800000002200076020700e10f400001003200c4
:102810000e07e8000804e900e00f5400f0ff3a005a
:10282000590237009fb0970070036600410478009a
:1028300091b79f00cfc4de00090578008a057800b3
:102840000800be000a01be004800de00c80add0024
:1028500000807200c07f9f00e00f5300090032002b
:10286000e04f500007003200e14f40000500320009
:1028700026002000d07f9f00e87f9f00c6b79f0002
:102880000300370017002000c7b79f00d87f9f00c4
:10289000d8fb2f0008844700b8b79f0082ff37009d
:1028a000c9fb2f001a00200089844700c67f9f00c3
:1028b000b9b79f00cab79f007bff3700c67f9f0054
:1028c0000c0cb3008c027800050cb2003b003a00ff
:1028d000e00f560005003d009fb297004501be0085
:1028e0004500be0095b79f000f003700f00266005c
:1028f000120032001fb497004803be00b6a79f0025
:10290000c7a79f0098b79f0098029000cfaade004b
:10291000d5a79f00e5a79f003fa09700cfa09700f5
:102920005fa19700efa19700b0b79f00c1b79f00cc
:10293000d2b79f00e3b79f000b0037009fb097000e
:10294000c102780005047800cfc4de0009057800d4
:102950008a05780091b79f00b8b79f00c9b79f005c
:10296000dab79f00ebb79f003fb09700cfb097005a
:102970005fb19700efb19700e00f5000e08f580073
:10298000e00f5900e08f590032003d006000b800b0
:102990006011b8003fb49700cfb497005fb59700bf
:1029a000efb597003c00b30008045000898458003c
:1029b0000a0559008b85590022003700e00f5600a8
:1029c00005003d009fb297004501be004500be00d6
:1029d00095b79f000f003700f0026600120032002a
:1029e0001fb497008004eb004803be000005eb0015
:1029f000b6af9f00c7af9f00d9af9f00eaaf9f005f
:102a00003fa89700cfa897005fa99700efa997006c
:102a100098b79f00b0b79f00c1b79f00d2b79f0083
:102a2000e3b79f000b0037009fb09700c10278000a
:102a300091b79f0005047800090020000a002000db
:102a40000b002000b8b79f00c9b79f00dab79f00fe
:102a5000ebb79f00afb49700e08f54000d003a0031
:102a60001a0020003fb09700cfb097005fb19700e9
:102a7000efb19700aab79f00e00f5000e08f580019
:102a8000e00f5900e08f5900020032008000eb0097
:102a9000a1b79f000c01780005042000020cb200d1
:102aa00082b79f00850f51003800320003003c00c0
:102ab000e00f5100080032004c00370005082000ec
:102ac0008fb19700858f510018003200050c20004f
:102ad000858f510045003a0015c0b3000003eb009c
:102ae000476224000603e8004330dd000700400091
:102af0003fb49700cfb497005fb59700efb597004c
:102b00005001be004000be000040e10001c8e100ed
:102b100002d0e10003d8e100330039008542e8002b
:102b2000f4cf5200efff3a002f00370015c0b3007a
:102b300000012000010020006011b8003fb49700a0
:102b4000cfb497005fb59700efb597000040e10064
:102b500001c8e10002d0e10003d8e1002200390001
:102b6000490020000000d0008180d2000281d20004
:102b70008381d2008904e900faff3a008542e80027
:102b8000f0cf5200edff3a001700370015c0b30038
:102b900080002000010020006011b8003fb49700c1
:102ba000cfb497005fb59700efb597000040e10004
:102bb00001c8e10002d0e10003d8e1000a003900b9
:102bc000390020000000d0008180d2000281d200b4
:102bd0008381d2008904e900faff3a008542e800c7
:102be000f5cf5200edff3a00c57f9f004f7d970063
:102bf000afb597008a02fb008b8f520002003d00a8
:102c0000cb7f9f00040037002fb09700850f500046
:102c100001003d00a5b79f00e00f52000300320005
:102c2000e3026600010032000402e900050024000e
:102c30008502660006003200afb09700810f520097
:102c40000200340001025200010037000002eb00d4
:102c50004f7997008001eb008202fb00f3af9f00e9
:102c6000850f52000200340085025200f5af9f002c
:102c7000640266003b003200e20266006102660008
:102c8000e08f520011003200bd0290000504b20036
:102c9000080032009d027800b6c2b300e00f520077
:102ca0000100320006c3e800864a7800850ee8007d
:102cb00015003700b0022000e00f52000100320082
:102cc0000080e8008d0078000c003700e00f520013
:102cd0000e0032003d0290000404b20005003200f4
:102ce0001d02780005c2b300054a7800840ee80092
:102cf000050037008d007800000220003801070031
:102d0000e10f4000010032000e07e8007faa9700a3
:102d1000e00f5200fe00320008c3b3000405780043
:102d20003d0290000404b200040032001d0278004d
:102d3000084a7800840ee800050037008d0078000e
:102d40000003200026010700e10f400001003200cf
:102d50000e07e8000a05e900f1ff3a00faaf9f000c
:102d6000eb003700ffaa9700e08f520014003200fa
:102d70006802660012003a0008c2b3000505780038
:102d80003d0290000404b200040032001d027800ed
:102d9000084a7800840ee800050037008d007800ae
:102da000000220000e010700e10f40000100320088
:102db0000e07e8000a05e900f1ff3a00faaf9f00ac
:102dc000e202660061026600e08f520011003200ec
:102dd000bd0290000504b200080032009d02780098
:102de000b6c2b300e00f52000100320006c3e80093
:102df000864a7800850ee80015003700b0022000f2
:102e0000e00f5200010032000080e8008d007800e1
:102e10000c003700e00f5200bd0032003d02900070
:102e20000404b200050032001d02780005c2b300a0
:102e3000054a7800840ee800050037008d00780010
:102e400000022000e6000700e10f4000b000320061
:102e50000e07e800ae0037002fb3970004042000ef
:102e60000603e9008fb39700a6b79f00848f530035
:102e70008400320003003c00e08f53000800320061
:102e800091003700040820000fb49700840f54000d
:102e900066003200040c2000840f54008a003a00bf
:102ea000afb49700614bb900e00f560024003d001d
:102eb000433add00cd32de00850272004332dd0090
:102ec0004a622400040245003fb09700cfb097004b
:102ed0005fb19700efb197003404be002405be0037
:102ee0000802be000a03be00c0f807000802be00c8
:102ef0000a03be00c07f9f000000fb00cf80de0001
:102f00000101780082017800bff807003fb2970006
:102f1000cfb297005fb39700efb397000002520063
:102f200081825a0002035b0083835b00b4b79f0079
:102f3000c5b79f00d6b79f00e7b79f00370037009f
:102f40009fa29700e08f5200270032004338dd0037
:102f5000cd30de00810070004330dd004762240088
:102f6000008343003fb29700cfb297003604be0003
:102f70002605be000400be000801be0084bf9f00fd
:102f8000f5b79f000005eb00ddf707000801be0064
:102f9000c07f9f000000fb00cf80de0044010700df
:102fa0000fba9700ffb29700aaaf9f00000452002b
:102fb00081845a00f8a79f0089af9f008004eb002e
:102fc00099af9f007fa097008fa897001fa9970037
:102fd000afa99700b0b79f00c1b79f00d2b79f00bd
:102fe000e3b79f000d00370041622400433add0043
:102ff000cd32de00850272004332dd003fb1970022
:1030000061027a00110009000481d800a4002000a8
:10301000110009000480d800c17f9f00cf7997007c
:103020000343b000c37f9f002700370034bf240054
:103030008fa29700e08f52000100320024be2400ce
:103040002fb397003fb09700cfb097005fb19700c4
:10305000efb19700c232dd008502e90005003300c0
:103060008301d1000281d3008180d3000080d3008e
:10307000f9ff37006f00600064407800c07f9f0058
:1030800011003700afb397003fb49700cfb497005b
:103090005fb59700efb59700633ab9000400780078
:1030a0000000e900050033008b05d1000a85d3003c
:1030b0008984d3000884d300f9ff37006742640095
:1030c0000443b000c47f9f003d0290000404b2009e
:1030d000070032009d0278004f7a9700844a7800fa
:1030e000850ee800e04f520007003a000d0037005f
:1030f000cf7897000100fb008d00780038000700b2
:10310000e10f4000070032000e07e800050037001d
:10311000700166008c01780092a79f000302b20044
:1031200083a79f002fb29700e00f52004aff3a009a
:103130006806660014003200ffaa9700e08f520074
:103140001100340008c2b300050578003d0290006c
:103150000404b200040032001d027800084a78001e
:10316000840ee800050037008d0078000002200082
:103170001b000700e10f4000010032000e07e800cd
:103180000a05e900f1ff3a00afa09700114078006e
:10319000c07f9f00e04f500075fc3a000e007800a1
:1031a0004f0778004f06be004f05be004f04be001b
:1031b0008f03b100000006000002780004007800d0
:1031c00000027800b442780081cf52000300320040
:1031d000e0cf5200f9ff3a000000eb0000000600cb
:1031e000889fbe00010478008084eb0038029000c4
:1031f000e20262003e003200040378009802900070
:103200000620b20002003a00e08f520038003a0077
:103210000490a0008004780034049800f90fb200f4
:10322000e08f520002003a00a8029000050c7800de
:10323000ea8f540005003a000408b20003003a0087
:1032400088007800d0002000e5ff070018029000f9
:1032500058039000e80390006120b900860f5000e9
:10326000878f58000b0032000402e80015c0b3003d
:103270001404980018027800094a7800040ce80049
:10328000a4d42400054a7800ea8f540018003a00bc
:103290000500370009407800880078001700070013
:1032a0008004780012003700380290000410b20049
:1032b0000f00320018019000a80090004800900014
:1032c000f0f4070018029000840f50000400320050
:1032d000380290000403b300340498008084eb00ab
:1032e0000002eb001404980028029000040c7800ff
:1032f000090078004f04be00000006000200fa003a
:10330000889fbe0001047800a0ff9f003802900053
:10331000840478000904b200020032000000fb00bf
:103320003d003700e202620005003a000403b300ea
:1033300015049800340498000080eb003600370034
:1033400058039000e8039000e00f5300e08f5b000b
:1033500007003a001200200003002000e68057001a
:1033600048009000c7f407001904980028003700af
:10337000a8029000e08f52000b003a00c5d4240050
:10338000260020000700200025049800050c780086
:103390000430a0002500200056049800670498001f
:1033a000150498003404980018019000a8009000bb
:1033b000cf91de0048009000b2f407002802900090
:1033c0008082eb0015049800affa9700054a780058
:1033d000040ce8002ffa9700ea4f52000c003a0064
:1033e000380290000410b200090032001801900069
:1033f000a8009000cf91de0048009000a1f40700e3
:103400000002eb00a802900014049800050c78005c
:103410002ffa97000400fb004f04be000080fa0062
:103420000000060000c0da0000000600839f68006c
:103430000100e00002003d0060001000e080180084
:103440000300e00002003d0060011100e08119006e
:10345000abf607004f00e00002003b0060001000e8
:10346000e080180000000600811f78000100e000e5
:1034700002003d0060001000e08018000300e00042
:1034800002003d0060011100e08119000500070005
:103490004f00e00002003b0060001000e0801800d8
:1034a0000000060096f607000400be0000000600bb
:1034b000020ab900001bb9000200b80081004200f6
:0834c00081004300000006003a
:020000040000fa
:1034c8000200fa00000f780094df2300944278008d
:1034d8001e027800054a78001e0fe800a4df2300ca
:1034e800944278001e027800054a78001e0fe80012
:1034f800b4df2300944278001e027800054a780061
:103508001e0fe800c4df2300944278001e027800f2
:10351800054a78000080fa00000006000800fa005a
:10352800604798006e4290000482fb004422de004f
:10353800044278000482fb00040f78001e02780021
:103548006f0f62006e4290000482fb006f026200ff
:10355800140798009e0278001e02780004aab90099
:10356800040378009e0290001e02900004aab9008d
:103578000402780004024300cfa2de000400be006b
:10358800ec050200000000000002be000203be00bd
:103598000400be000601be00e006020000000000b4
:1035a8000002be000203be000400be000601be0009
:1035b80094050200000000000002be0024079800e5
:1035c8002e029000040078000080fa000000060037
:1035d8000800fa00300798003e029000050020001d
:1035e800752bb900060378006020b90080037800c5
:1035f800070343008402780054012000042ab8001d
:10360800050343008602780072024200e0824a0005
:1036180036fe220004024300144278000482fb00b4
:103628006f0f62003e02900005002000752bb90064
:10363800060378006020b900800378000703430080
:103648008402780054012000042ab80005034300ce
:103658008602780072024200e0824a0036fe2200aa
:1036680004024300144278000482fb004422de0076
:10367800044278000482fb006f026200140798007d
:103688009e0278001e02780004aab900040378009c
:103698009e0290001e02900004aab900040278005d
:1036a80004024300240798002e02900004007800ca
:1036b8000080fa00000006000200fa00000f7800ff
:1036c8001e02780005002000752bb900060378005b
:1036d8006020b90080037800070343008402780063
:1036e80054012000042ab80005034300860278002c
:1036f8006f024200e0824a0026fe220004024300d4
:1037080014427800e14f520028003a001e02780067
:1037180005002000752bb900060378006020b90069
:1037280080037800070343008402780054012000d6
:10373800042ab80005034300860278006e0242009e
:10374800e0824a0026fe2200040243001442780068
:10375800e04f520015003a001e02780005002000d4
:10376800752bb900060378006020b9008003780043
:10377800070343008402780054012000042ab8009b
:1037880005034300860278006d024200e0824a0089
:1037980026fe22000402430014427800e04f520043
:1037a80002003a00140020002a0137001e027800a7
:1037b80005002000752bb900060378006020b900c9
:1037c8008003780007034300840278005401200036
:1037d800042ab80005034300860278006602420006
:1037e800e0824a0026fe22000402430014427800c8
:1037f800e04f520028003a001e0278000500200021
:10380800752bb900060378006020b90080037800a2
:10381800070343008402780054012000042ab800fa
:10382800050343008602780065024200e0824a00f0
:1038380026fe22000402430014427800e04f5200a2
:1038480015003a001e02780005002000752bb9000b
:10385800060378006020b90080037800070343005e
:103868008402780054012000042ab80005034300ac
:103878008602780064024200e0824a0026fe2200a6
:103888000402430014427800e14f520002003a005b
:1038980014002000ef0037001e0278000500200009
:1038a800752bb900060378006020b9008003780002
:1038b800070343008402780054012000042ab8005a
:1038c80005034300860278006f024200e0824a0046
:1038d80026fe22000402430014427800fe4f5200e4
:1038e80028003a001e02780005002000752bb90058
:1038f800060378006020b9008003780007034300be
:103908008402780054012000042ab800050343000b
:10391800860278006e024200e0824a0026fe2200fb
:103928000402430014427800e04f520015003a00a8
:103938001e02780005002000752bb90006037800e8
:103948006020b900800378000703430084027800f0
:1039580054012000042ab8000503430086027800b9
:103968006d024200e0824a0026fe22000402430063
:1039780014427800e14f520002003a00140020007f
:10398800b40037001e02780005002000752bb9002e
:10399800060378006020b90080037800070343001d
:1039a8008402780054012000042ab800050343006b
:1039b8008602780066024200e0824a0026fe220063
:1039c8000402430014427800e14f520028003a00f4
:1039d8001e02780005002000752bb9000603780048
:1039e8006020b90080037800070343008402780050
:1039f80054012000042ab800050343008602780019
:103a080065024200e0824a0026fe220004024300ca
:103a180014427800e04f520015003a001e02780068
:103a280005002000752bb900060378006020b90056
:103a380080037800070343008402780054012000c3
:103a4800042ab80005034300860278006402420095
:103a5800e0824a0026fe2200040243001442780055
:103a6800fe4f520002003a0014002000790037008f
:103a78001e02780005002000752bb90006037800a7
:103a88006020b900800378000703430084027800af
:103a980054012000042ab800050343008602780078
:103aa8006f024200e0824a0026fe22000402430020
:103ab8009442780004c3b30084cf520028003a002f
:103ac8001e02780005002000752bb9000603780057
:103ad8006020b9008003780007034300840278005f
:103ae80054012000042ab800050343008602780028
:103af8006e024200e0824a0026fe220004024300d1
:103b080014427800e04f520015003a001e02780077
:103b180005002000752bb900060378006020b90065
:103b280080037800070343008402780054012000d2
:103b3800042ab80005034300860278006d0242009b
:103b4800e0824a0026fe2200040243001442780064
:103b5800e14f520002003a00140020003d003700f7
:103b68001e02780005002000752bb90006037800b6
:103b78006020b900800378000703430084027800be
:103b880054012000042ab800050343008602780087
:103b980066024200e0824a0026fe22000402430038
:103ba80014427800e14f520029003a001e027800c2
:103bb80005002000752bb900060378006020b900c5
:103bc8008003780007034300840278005401200032
:103bd800042ab80005034300860278006502420003
:103be800e0824a0026fe22000402430014427800c4
:103bf800e04f520016003a001e027800050020002f
:103c0800752bb900060378006020b900800378009e
:103c1800070343008402780054012000042ab800f6
:103c2800050343008602780064024200e0824a00ed
:103c380026fe2200040243009442780004c3b30025
:103c480084cf520002003a0014002000010037001f
:103c58000002eb00040078000080fa000000060073
:103c68000200fa00000f7800320020000300200054
:103c78009e00780060f422009c0d02000000000005
:103c880044062000547a89000002eb000400780002
:103c98000080fa00000006000200fa000002eb00b3
:103ca800040f78000e0037001e0278006123b90067
:103cb800433add00cd32de00850272004332dd007a
:103cc800e69c22000602420014427800e04f5200af
:103cd80002003a001e027800060037001e0fe800b6
:103ce800340620009e027800848f5200eeff3400d4
:103cf8000082eb00040078000080fa000000060053
:103d08000400fa00100798000002eb00040f780086
:103d1800140037001e0278006123b900433add0021
:103d2800cd32de00850272004332dd00e69c2200bf
:103d38000602420032002000030020009e0090008e
:103d480004007800640d0200000000000002780002
:103d5800e00f520002003a001e027800050037000a
:103d68001e0fe8001e027800e20f5200e9ff34003f
:103d78000082eb00040078000080fa0000000600d2
:103d88000a00fa00100798002107980032079800e7
:103d980043079800c0ff070000027800040f78006e
:103da8001e027800e00f520002003d001e0278005b
:103db8002a0037001e0278006123b900433add006b
:103dc800cd32de00850272004332dd00e69c22001f
:103dd8000602420032002000030020009e009000ee
:103de800040078009c0d0200000000001e0278000c
:103df8006123b900433add00cd32de00850272004e
:103e08004332dd0066024200e0824a00e69c22005e
:103e180006024200ae029000050a78003e029000b9
:103e28000442780004407800bcfd07001e027800b8
:103e38006123b900433add00cd32de00850272000d
:103e48004332dd0064024200e0824a00e69c220020
:103e580006024200000a78001e027800040078007a
:103e68000080fa00000006000400fa00100798001d
:103e78001e0090003301070000027800040f78004c
:103e88001e0278006123b900433add00cd32de001e
:103e9800850272004332dd00e69c220006024200e1
:103ea80032002000030020008000eb0004007800ae
:103eb800f60d0200000000001e0278006123b90020
:103ec800433add00cd32de00850272004332dd0068
:103ed80064024200e0824a00e69c22000602420098
:103ee8008002eb00050a78001e0278006123b90001
:103ef800433add00cd32de00850272004332dd0038
:103f080066024200e0824a00e69c22000602420065
:103f18008002eb00050a78000002eb00040078003c
:103f28000080fa00000006000200fa00000f780086
:103f38001e0278006123b900433add00cd32de006d
:103f4800850272004332dd00e69c22000602420030
:103f580032002000030020008000eb0004007800fd
:103f6800f60d0200000000001e0278006123b9006f
:103f7800433add00cd32de00850272004332dd00b7
:103f880064024200e0824a00e69c220006024200e7
:103f98008002eb00050a78001e0278006123b90050
:103fa800433add00cd32de00850272004332dd0087
:103fb80066024200e0824a00e69c220006024200b5
:103fc8008002eb00050a78000002eb00040078008c
:103fd8000080fa00000006000e00fa005007980062
:103fe800610798003200200003002000de009000e6
:103ff8000e0078009c0d02000000000063024700dc
:104008003200200003002000ee0090000400780039
:104018009c0d0200000000000080fa00000006006d
:104028000200fa000002eb00040f780027003700b6
:104038001e0278006123b900433add00cd32de006c
:10404800850272004332dd00e69c2200060242002f
:1040580032002000030020008000eb0004007800fc
:10406800f60d0200000000001e0278006123b9006e
:10407800433add00cd32de00850272004332dd00b6
:1040880064024200e0824a00e69c220006024200e6
:104098008002eb00050a78001e0278006123b9004f
:1040a800433add00cd32de00850272004332dd0086
:1040b80066024200e0824a00e69c220006024200b4
:1040c8008002eb00050a78001e0fe8003406200085
:1040d8009e027800848f5200d5ff34000080fa00d9
:1040e800000006000000fa00320020000300200053
:1040f8008000eb0060f42200f60d020000000000d2
:104108000002eb00547a89000002eb0004007800fa
:104118000080fa00000006000000fa00547a8100ce
:10412800e00f520003003400547a81000402e900d1
:10413800547a8900547a8100e00f520003003a0053
:10414800e8ff07000082eb00547a89000080fa003b
:10415800000006000000fa009517800004082000ff
:1041680004826200e00f52000d003a00a57b810036
:10417800f40e2000848f5200050034001400200043
:10418800b47b8900040f2000a47b89000f0037004e
:10419800a47b81000402e800a47b89000b0037009f
:1041a800a47b8100ea0f520005003c000002eb00ee
:1041b800b47b8900a4002000a47b89000300370099
:1041c800a47b81000402e900a47b89000080fa0036
:1041d800000006000000fa00547a8100e00f520047
:1041e80003003a000002eb00d47b89001b00370073
:1041f800e47b8100e10f52000d003a00c57b81008d
:10420800f40e2000848f52000500340014002000b2
:10421800d47b8900040f2000c47b89000f0037007d
:10422800c47b810065024200c47b89000b00370013
:10423800c47b8100ea0f520005003c000002eb003d
:10424800d47b8900a4002000c47b890003003700c8
:10425800c47b81000402e900c47b89000080fa0065
:10426800000006000200fa00000f78001e02780025
:10427800cfa2de000402420085824a00e6f4220052
:10428800060242008082eb00050a78001e027800d0
:10429800cfa2de000402420085824a00a6f5220071
:1042a800060242008002eb00050a78000080fa004e
:1042b800000006000000fa00947b8100e00f520025
:1042c80003003400947b81000402e900947b890098
:1042d800347b8100e00f520003003400347b8100fe
:1042e8000402e900347b8900147c81000402e800a0
:1042f800147c8900157c8100843e2000848f520044
:10430800040034000002eb00147c8900a8ed0200d0
:10431800000000009e66020000000000bcc502000c
:1043280000000000a0f9020000000000cebe02005c
:1043380000000000c0f10200000000000080fa0048
:10434800000006000400fa00100798001e02900002
:104358009442780004c5b30084cf520002003200b2
:104368000082eb00220037000002eb00040f780007
:104378001a0037001e027800cfa2de00662bb900b3
:10438800060378006020b900800378000703430023
:104398008402780064002000042ab8000503430062
:1043a80086027800e6ce2200060242003200200093
:1043b800030020009e00900004007800640d0200b5
:1043c8000000000000027800e00f520002003a00ee
:1043d8001e027800060037001e0fe8003406200091
:1043e8009e027800848f5200e2ff34000082eb00c6
:1043f800040078000080fa00000006000200fa00bd
:104408000002eb00040f7800140037001e02780049
:10441800cfa2de00662bb900060378006020b90041
:1044280080037800070343008402780064002000ba
:10443800042ab8000503430086027800e6ce22006d
:104448000602420014427800e04f520002003a008f
:104458001e027800060037001e0fe8003406200010
:104468009e027800848f5200e8ff34000082eb003f
:10447800040078000080fa00000006000400fa003a
:104488000002eb00140798000002eb00040f78000c
:10449800110037001e0278006123b900433add009d
:1044a800cd32de00850272004332dd00e69c220038
:1044b8000602420014427800e04f52000500320024
:1044c8001e0290000402e800140798001e029000e3
:1044d800060037001e0fe800340620009e02780010
:1044e800848f5200ebff34000002eb0004007800d8
:1044f8000080fa00000006000400fa000002eb0049
:10450800140798000002eb00040f78000e00370033
:104518001e0278006123b900433add00cd32de0087
:10452800850272004332dd00e69c2200060242004a
:1045380014427800e04f5200020032001e02780058
:10454800060037001e0fe800340620009e0278009f
:10455800848f5200eeff34000082eb0004007800e4
:104568000080fa00000006000000fa000002eb00dc
:10457800040078000080fa00000006000400fa0039
:10458800100798001e0090006eff070000027800d8
:10459800040f78001e027800e00f52001400350066
:1045a8001e027800cfa2de00662bb9000603780051
:1045b8006020b90080037800070343008402780074
:1045c80064002000042ab80005034300860278002e
:1045d80064024200e0824a00e6ce2200060242005f
:1045e80045062000050a78000082eb002f003700fe
:1045f80082ff070000027800040f78001e0278008e
:10460800e00f520002003d000082eb002700370057
:104618001e027800cfa2de00662bb90006037800e0
:104628006020b90080037800070343008402780003
:1046380064002000042ab8000503430086027800bd
:1046480064024200e0824a00e6ce220006024200ee
:1046580045062000050a78001e027800cfa2de0079
:10466800662bb900060378006020b9008003780043
:10467800070343008402780064002000042ab8007d
:104688000503430086027800e6ce220006024200b7
:1046980032002000030020009e00900004007800f3
:1046a8009c0d0200000000000002eb0004007800ee
:1046b8000080fa00000006000200fa00000f7800ef
:1046c800440620009e027800848f520002003400c5
:1046d8000082eb00150037001e027800cfa2de0032
:1046e800662bb900060378006020b90080037800c3
:1046f800070343008402780064002000042ab800fd
:104708000503430086027800e6ce22000602420036
:1047180032002000030020008000eb000400780035
:10472800f60d0200000000000002eb000400780013
:104738000080fa00000006000200fa000002eb0008
:10474800040f7800270037001e0278006123b900a3
:10475800433add00cd32de00850272004332dd00cf
:10476800e69c2200060242003200200003002000de
:104778008000eb0004007800f60d02000000000045
:104788001e0278006123b900433add00cd32de0015
:10479800850272004332dd0066024200e0824a0070
:1047a800e69c2200060242008002eb00050a78001f
:1047b8001e0278006123b900433add00cd32de00e5
:1047c800850272004332dd0064024200e0824a0042
:1047d800e69c2200060242008002eb00050a7800ef
:1047e8001e0fe800340620009e027800848f5200d5
:1047f800d5ff34000080fa00000006000200fa002d
:104808000002eb00040f7800270037001e02780032
:10481800cfa2de00662bb900060378006020b9003d
:1048280080037800070343008402780064002000b6
:10483800042ab8000503430086027800e6ce220069
:104848000602420032002000030020008000eb0036
:1048580004007800f60d0200000000001e02780037
:10486800cfa2de00662bb900060378006020b900ed
:104878008003780007034300840278006400200066
:10488800042ab80005034300860278006402420047
:10489800e0824a00e6ce2200060242008002eb00d7
:1048a800050a78001e0fe800340620009e027800f2
:1048b800848f5200d5ff34000080fa000000060003
:1048c8000400fa00100798000002eb00040f7800bb
:1048d8008e0037001e027800cfa2de00752bb900cb
:1048e800060378006020b9008003780007034300be
:1048f8008402780054012000042ab800050343000c
:104908008602780064024200e0824a0026fe220005
:1049180006024200c2002000030020008000eb00d5
:1049280004007800f60d0200000000001e02780066
:10493800cfa2de00752bb900060378006020b9000d
:1049480080037800070343008402780054012000a4
:10495800042ab800050343008602780026fe2200d8
:104968000602420022002000030020008000eb0025
:1049780004007800f60d0200000000001e02780016
:10498800cfa2de00752bb900060378006020b900bd
:104998008003780007034300840278005401200054
:1049a800042ab80005034300860278006202420028
:1049b800e0824a0026fe2200060242002200200071
:1049c800030020008000eb0004007800f60d0200d0
:1049d800000000001e027800cfa2de00752bb9008f
:1049e800060378006020b9008003780007034300bd
:1049f8008402780054012000042ab800050343000b
:104a08008602780070024200e0824a0026fe2200f8
:104a1800040243008042eb00054a78001e02780039
:104a2800cfa2de00752bb900060378006020b9001c
:104a380080037800070343008402780054012000b3
:104a4800042ab80005034300860278007002420079
:104a5800e0824a0026fe2200060242000402e80024
:104a680022002000030020008000eb0004007800f2
:104a7800f60d0200000000001e027800cfa2de0042
:104a8800752bb900060378006020b9008003780010
:104a9800070343008402780054012000042ab80068
:104aa800050343008602780072024200e0824a0051
:104ab80036fe2200040243008042eb00054a7800db
:104ac8001e027800cfa2de00752bb900060378001d
:104ad8006020b9008003780007034300840278004f
:104ae80054012000042ab800050343008602780018
:104af80074024200e0824a0026fe220004024300bb
:104b08008042eb00054a78001e0fe8001e02900064
:104b18009e027800848f52006eff35000080fa00f4
:104b2800000006000400fa000002eb00040f780001
:104b38000e82e80012c0b30084007800300620001e
:104b48001c010200010000002e4290000482fb00bc
:104b58001e0f72001e027800040078000080fa0020
:104b6800000006000200fa00eeff070000027800cd
:104b7800040f7800440620009e027800848f5200bb
:104b8800060036008040eb00300620007e00020060
:104b9800010000000002eb00010037001e0278004f
:104ba800040078000080fa00000006000600fa0001
:104bb800200798002e0290000402e80024079800bd
:104bc8002e029000040f7800ae02900044062000e8
:104bd800848f5200020034000002eb00030037000b
:104be8001e027800244798002e02900004007800e6
:104bf8000080fa00000006000600fa00200798006e
:104c0800c8ff070000027800040f78001e0fe800b4
:104c18001e027800140798009e02780044062000bf
:104c280004aab90004027800040f780042c6b30051
:104c3800ae0090001e007800be01020001000000d6
:104c48001e0290000442780084407800300620005c
:104c58007e000200010000000080fa00000006004b
:104c68006a00fa00bfff07000002780024079800d6
:104c780044062000040f78000002eb001407980097
:104c88000e0037006602470042c6b3008400780071
:104c98001e0078001c010200010000006e42900016
:104ca800e14f420002003200440620001e0f42007d
:104cb8001e0290000402e800140798009e0290006b
:104cc8002e029000848f5200eeff35000080fa001b
:104cd800000006000400fa000042eb002447980098
:104ce80044062000040f7800080037000e82e80010
:104cf80012c0b300840078001e007800be010200d4
:104d080001000000440620001e0f4200f47022003b
:104d18009e027800848f5200f4ff36008040eb003a
:104d2800300620007e000200010000000080fa002a
:104d3800000006000200fa00000f78001e0278004a
:104d48006e0f42001e0078000cfe07001e0278005d
:104d58006e0f52000080fa00000006006800fa009a
:104d6800303798000e82e800a200200003002000df
:104d7800416c2400040078009c0d02000000000033
:104d88000e82e80004007800f41002000000000021
:104d98000002be000e83e8000401be008600780011
:104da8003e309000640d0200000000000002780010
:104db800e00f52000b003a003e309000f410020061
:104dc800000000000002be00040f78001e027800f8
:104dd800f10f520003003a003e32900004007800c0
:104de800d4ff0700f4b42400144278000400fb0048
:104df800e4b42400144278008403fb00d4b42400f3
:104e0800144278000403fb00c4b424001442780060
:104e18008402fb000e82e800801f7800871f78005c
:104e2800861f7800851f7800e56c2400851f7800b0
:104e3800040078007a11020000000000ea87570099
:104e48000e82e80004007800f41002000000000060
:104e58000002be000e83e8000401be008600780050
:104e68003e309000640d020000000000000278004f
:104e7800e00f520001003a003aff0700f4b42400a2
:104e8800144278000400fb00e4b4240014427800c3
:104e98008403fb00d4b42400144278000403fb000c
:104ea800c4b42400144278008402fb000e82e80097
:104eb800801f7800871f7800861f7800851f78007c
:104ec800056e2400851f7800040078007a1102001e
:104ed80000000000ea8757000e82e800040078000e
:104ee800f4100200000000000002be000e83e8007b
:104ef8000401be00860078003e309000640d020078
:104f08000000000000027800e00f520001003a00a3
:104f180053ff0700f4b42400144278000400fb0097
:104f2800e4b42400144278008403fb00d4b42400c1
:104f3800144278000403fb00c4b42400144278002f
:104f48008402fb000e82e800801f7800871f78002b
:104f5800861f7800851f7800556f2400851f78000c
:104f6800040078007a11020000000000ea87570068
:104f78000e82e80004007800f4100200000000002f
:104f88000002be000e83e8000401be00860078001f
:104f98003e309000640d020000000000000278001e
:104fa800e00f520001003a004aff070062002000ab
:104fb80003002000a17024003e309000640d020020
:104fc8000000000000027800e00f52000a003a00da
:104fd8003e32900066024200343798003e3090001e
:104fe8002e0b0200000000000002be000400be00fc
:104ff800baf0020000000000520020000300200068
:10500800117124003e309000640d02000000000081
:1050180000027800e00f52000b003a000e82e80010
:10502800c5a92400851f780005ab2400851f7800da
:1050380075712400851f7800040078007a11020039
:1050480000000000e68757000080fa000000060014
:105058000000fa000080fa00000006000000fa00d4
:10506800843e2000144b8900e4fd0700b2fd0700d0
:1050780084f622008042eb00054a78000002eb002b
:10508800647b89000002eb00344b89000002eb00ce
:10509800747b89000002eb00647a89000080fa00c2
:1050a800000006000200fa000002eb00040f78007e
:1050b8004c0037001e027800cfa2de00662bb90034
:1050c800060378006020b9008003780007034300d6
:1050d8008402780064002000042ab8000503430015
:1050e8008602780064024200e0824a00e6ce22008e
:1050f8000602420014027800e00f52003800340023
:105108001e027800cfa2de00662bb90006037800e5
:105118006020b90080037800070343008402780008
:1051280064002000042ab8000503430086027800c2
:1051380064024200e0824a00e6ce220006024200f3
:10514800140278000401e9001e027800cfa2de00f4
:10515800662bb900060378006020b9008003780048
:10516800070343008402780064002000042ab80082
:10517800050343008602780064024200e0824a0088
:10518800e6ce220006024200020a78001e027800db
:10519800cfa2de00662bb900060378006020b900b4
:1051a800800378000703430084027800640020002d
:1051b800042ab8000503430086027800640242000e
:1051c800e0824a00e6ce220006024200140278007d
:1051d800e00f520002003a001e00780036fd07007a
:1051e8001e0fe800340620009e027800848f5200cb
:1051f800b0ff34000080fa00000006000000fa004a
:1052080096dc020000000000c6dc0200000000007e
:105218000080fa00000006000000fa00aedc020080
:1052280000000000dedc0200000000000080fa0040
:10523800000006000000fa00d2dc020000000000b6
:105248000080fa00000006000000fa00eadc020014
:10525800000000000080fa00000006000000fa00cc
:10526800a2dc0200000000000080fa000000060036
:105278000000fa00badc0200000000000080fa001a
:10528800000006000400fa008000eb000000eb00bc
:10529800aedd020000000000400020000f01070002
:1052a800104c020000000000547a8100040f7800be
:1052b8001e027800e00f52000700320060f422005e
:1052c8001508070000027800e10f520002003a00ba
:1052d80014002000ac00370011002000400020001e
:1052e800aedd020000000000c000200074fd0700d1
:1052f800384c02000000000000427800e04f5200e5
:105308009c0032000002eb00140798001e02900077
:10531800eb0f520097003c008000eb00400020009b
:10532800aedd0200000000008000eb000000eb0092
:10533800aedd02000000000092df02000000000065
:105348001e029000cfa2de00752bb900060378007c
:105358006020b900800378000703430084027800c6
:1053680054012000042ab80005034300860278008f
:1053780064024200e0824a0026fe22000602420041
:10538800310020000400780078010700000278004e
:10539800e00f5200160032001e029000cfa2de007d
:1053a800752bb900060378006020b90080037800e7
:1053b800070343008402780054012000042ab8003f
:1053c800050343008602780064024200e0824a0036
:1053d80026fe220006024200c20020000300200030
:1053e8008000eb0004007800f60d020000000000c9
:1053f8001e029000cfa2de00752bb90006037800cc
:105408006020b90080037800070343008402780015
:1054180054012000042ab8000503430086027800de
:1054280067024200e0824a0026fe2200060242008d
:105438009100200004007800320107000002780083
:10544800e00f5200160032001e029000cfa2de00cc
:10545800752bb900060378006020b9008003780036
:10546800070343008402780054012000042ab8008e
:10547800050343008602780064024200e0824a0085
:1054880026fe220006024200c2002000030020007f
:105498008000eb0004007800f60d02000000000018
:1054a8001e029000cfa2de00752bb900060378001b
:1054b8006020b90080037800070343008402780065
:1054c80054012000042ab80005034300860278002e
:1054d80064024200e0824a0026fe220006024200e0
:1054e800040078008c07070000027800e00f5200e3
:1054f80002003a000002eb00230037001e02900071
:10550800cfa2de00752bb900060378006020b90031
:1055180080037800070343008402780054012000c8
:10552800042ab8000503430086027800640242009a
:10553800e0824a0026fe22000602420032002000d5
:10554800030020008400780060f422009c0d020013
:105558000000000044062000547a8900c0002000a2
:10556800d7fc070092df02000000000014002000b2
:10557800050037008000eb000000eb00aedd020004
:10558800000000000002eb00040078000080fa0030
:10559800000006000000fa0084f622001442780099
:1055a800e04f5200020032001400200006003700cd
:1055b800b47b8100e00f5200020032000002eb00d1
:1055c8000100370014002000040078000080fa0071
:1055d800000006000000fa0084f622001442780059
:1055e800e04f52000200320014002000060037008d
:1055f800b47b8100e00f520002003200140020004a
:10560800010037000002eb00040078000080fa0077
:10561800000006000000fa001400200004007800d2
:105628000080fa00000006000000fa00f172240071
:1056380000ab24004c1102000000000000027800ba
:10564800e00f52000e003a006173240000ab240002
:105658004c1102000000000000027800e00f520028
:1056680007003a00d173240000ab24004c1102005b
:105678000000000000027800e00f52000200320033
:1056880014002000010037000002eb00040078003d
:105698000080fa00000006000000fa000002eb009b
:1056a800040078000080fa00000006000000fa00fc
:1056b800951780000404200004826200e00f520065
:1056c80002003200140020000100370024002000ee
:1056d800040078000080fa00000006000200fa00ca
:1056e800000f78001e00780004e1020000000000ae
:1056f8000080fa00000006000600fa001007980073
:10570800210798000002eb00040f78008000eb00ee
:105718000000eb00aedd0200000000001e02900059
:10572800e10f520009003a002e029000e10f5200ea
:1057380003003a0024002000040f78000b00370013
:1057480014002000040f7800080037002e02900093
:10575800e30f520003003a0034002000040f7800e1
:105768000200370034002000040f78001e02780081
:10577800040078000080fa00000006000200fa0029
:10578800000f78001e027800e10f520004003a0072
:10579800840c2000947b890004a62e001b0037008f
:1057a8001e027800e20f520004003a00840c200028
:1057b800947b890004a62e00140037001e0278008e
:1057c800e30f520004003a00840c2000947b890007
:1057d800045327000d0037001e027800e40f520022
:1057e80002003a0034002000080037001e0278004a
:1057f800e60f520002003a001400200003003700b0
:10580800840c2000947b8900140020000400780098
:105818000080fa00000006000200fa00000f78007d
:105828001e027800e20f520003003c001e027800be
:10583800790f42002f0037001e027800e20f520055
:10584800060034001e027800ea0f520003003c00f4
:105858001e027800740f4200260037001e027800ee
:10586800ea0f5200060034001e027800fe0f5200b4
:1058780003003c001e0278006a0f42001d0037003a
:105888001e027800fe0f5200070034008402200038
:105898009e027800848f520003003c001e027800ac
:1058a800650f420013003700840220009e02780032
:1058b800848f520006003400d40220009e02780033
:1058c800848f520002003c001e8fe8000900370058
:1058d800d40220009e027800848f52000500340014
:1058e800f40220009e027800848f520001003c00e0
:1058f8001e0fe8001e027800040078000080fa00fd
:10590800000006000800fa002007980031079800f8
:105918000042eb00244798000002eb00040f7800d7
:10592800090037002e02900014427800ae42900021
:1059380004c27200244798002e0290000402e80076
:10594800240798001e0fe8003e0290009e0278008f
:10595800848f5200f3ff35002e4290000402fb00b2
:10596800040078000080fa00000006000800fa0031
:1059780020079800310798000042eb002447980060
:105988000002eb00040f78001d0037002e02900083
:1059980014427800344798003e4290000402fb000d
:1059a80044a2de00344798003e429000e94f52007e
:1059b800030034002e4290000404a00024479800fd
:1059c8002e02900014427800344798003e4290001e
:1059d8006f426200344798003e429000e94f5200ff
:1059e800030034002e4290000404a00024479800cd
:1059f8002e0290000402e800240798001e0fe80019
:105a08003e0290009e027800848f5200dfff35002e
:105a18002e4290000402fb00040078000080fa0087
:105a2800000006000c00fa0050079800384c0200ed
:105a380000000000004278000482fb002407980060
:105a48002e029000e00f520002003a000002eb0024
:105a58000a0237008adf0200000000002e029000d0
:105a6800ec0f5200040034000002eb0024079800f9
:105a78002e029000010237000002eb00040f7800ac
:105a8800f70137000002eb00140798001e027800a7
:105a9800cfa2de00752bb900060378006020b9009c
:105aa8008003780007034300840278005401200033
:105ab800042ab80005034300860278006402420005
